{
  "_format": "hh-sol-artifact-1",
  "contractName": "ShopifyRoyaltyPayout",
  "sourceName": "contracts/ShopifyRoyaltyPayout.sol",
  "abi": [
    {
      "inputs": [
        {
          "internalType": "address",
          "name": "token_",
          "type": "address"
        },
        {
          "internalType": "address",
          "name": "admin",
          "type": "address"
        },
        {
          "internalType": "address",
          "name": "oracle",
          "type": "address"
        }
      ],
      "stateMutability": "nonpayable",
      "type": "constructor"
    },
    {
      "inputs": [],
      "name": "AccessControlBadConfirmation",
      "type": "error"
    },
    {
      "inputs": [
        {
          "internalType": "address",
          "name": "account",
          "type": "address"
        },
        {
          "internalType": "bytes32",
          "name": "neededRole",
          "type": "bytes32"
        }
      ],
      "name": "AccessControlUnauthorizedAccount",
      "type": "error"
    },
    {
      "inputs": [],
      "name": "ReentrancyGuardReentrantCall",
      "type": "error"
    },
    {
      "inputs": [
        {
          "internalType": "address",
          "name": "token",
          "type": "address"
        }
      ],
      "name": "SafeERC20FailedOperation",
      "type": "error"
    },
    {
      "anonymous": false,
      "inputs": [
        {
          "indexed": true,
          "internalType": "bytes32",
          "name": "batchId",
          "type": "bytes32"
        },
        {
          "indexed": false,
          "internalType": "uint256",
          "name": "total",
          "type": "uint256"
        },
        {
          "indexed": false,
          "internalType": "uint256",
          "name": "count",
          "type": "uint256"
        },
        {
          "indexed": false,
          "internalType": "bytes32",
          "name": "batchHash",
          "type": "bytes32"
        }
      ],
      "name": "BatchProcessed",
      "type": "event"
    },
    {
      "anonymous": false,
      "inputs": [
        {
          "indexed": true,
          "internalType": "bytes32",
          "name": "role",
          "type": "bytes32"
        },
        {
          "indexed": true,
          "internalType": "bytes32",
          "name": "previousAdminRole",
          "type": "bytes32"
        },
        {
          "indexed": true,
          "internalType": "bytes32",
          "name": "newAdminRole",
          "type": "bytes32"
        }
      ],
      "name": "RoleAdminChanged",
      "type": "event"
    },
    {
      "anonymous": false,
      "inputs": [
        {
          "indexed": true,
          "internalType": "bytes32",
          "name": "role",
          "type": "bytes32"
        },
        {
          "indexed": true,
          "internalType": "address",
          "name": "account",
          "type": "address"
        },
        {
          "indexed": true,
          "internalType": "address",
          "name": "sender",
          "type": "address"
        }
      ],
      "name": "RoleGranted",
      "type": "event"
    },
    {
      "anonymous": false,
      "inputs": [
        {
          "indexed": true,
          "internalType": "bytes32",
          "name": "role",
          "type": "bytes32"
        },
        {
          "indexed": true,
          "internalType": "address",
          "name": "account",
          "type": "address"
        },
        {
          "indexed": true,
          "internalType": "address",
          "name": "sender",
          "type": "address"
        }
      ],
      "name": "RoleRevoked",
      "type": "event"
    },
    {
      "anonymous": false,
      "inputs": [
        {
          "indexed": true,
          "internalType": "address",
          "name": "payee",
          "type": "address"
        },
        {
          "indexed": false,
          "internalType": "uint256",
          "name": "amount",
          "type": "uint256"
        },
        {
          "indexed": false,
          "internalType": "address",
          "name": "to",
          "type": "address"
        }
      ],
      "name": "Withdraw",
      "type": "event"
    },
    {
      "inputs": [],
      "name": "DEFAULT_ADMIN_ROLE",
      "outputs": [
        {
          "internalType": "bytes32",
          "name": "",
          "type": "bytes32"
        }
      ],
      "stateMutability": "view",
      "type": "function"
    },
    {
      "inputs": [],
      "name": "ORACLE_ROLE",
      "outputs": [
        {
          "internalType": "bytes32",
          "name": "",
          "type": "bytes32"
        }
      ],
      "stateMutability": "view",
      "type": "function"
    },
    {
      "inputs": [
        {
          "internalType": "address",
          "name": "",
          "type": "address"
        }
      ],
      "name": "balances",
      "outputs": [
        {
          "internalType": "uint256",
          "name": "",
          "type": "uint256"
        }
      ],
      "stateMutability": "view",
      "type": "function"
    },
    {
      "inputs": [
        {
          "internalType": "bytes32",
          "name": "role",
          "type": "bytes32"
        }
      ],
      "name": "getRoleAdmin",
      "outputs": [
        {
          "internalType": "bytes32",
          "name": "",
          "type": "bytes32"
        }
      ],
      "stateMutability": "view",
      "type": "function"
    },
    {
      "inputs": [
        {
          "internalType": "bytes32",
          "name": "role",
          "type": "bytes32"
        },
        {
          "internalType": "address",
          "name": "account",
          "type": "address"
        }
      ],
      "name": "grantRole",
      "outputs": [],
      "stateMutability": "nonpayable",
      "type": "function"
    },
    {
      "inputs": [
        {
          "internalType": "bytes32",
          "name": "role",
          "type": "bytes32"
        },
        {
          "internalType": "address",
          "name": "account",
          "type": "address"
        }
      ],
      "name": "hasRole",
      "outputs": [
        {
          "internalType": "bool",
          "name": "",
          "type": "bool"
        }
      ],
      "stateMutability": "view",
      "type": "function"
    },
    {
      "inputs": [
        {
          "internalType": "bytes32",
          "name": "",
          "type": "bytes32"
        }
      ],
      "name": "processed",
      "outputs": [
        {
          "internalType": "bool",
          "name": "",
          "type": "bool"
        }
      ],
      "stateMutability": "view",
      "type": "function"
    },
    {
      "inputs": [
        {
          "internalType": "bytes32",
          "name": "role",
          "type": "bytes32"
        },
        {
          "internalType": "address",
          "name": "callerConfirmation",
          "type": "address"
        }
      ],
      "name": "renounceRole",
      "outputs": [],
      "stateMutability": "nonpayable",
      "type": "function"
    },
    {
      "inputs": [
        {
          "internalType": "bytes32",
          "name": "role",
          "type": "bytes32"
        },
        {
          "internalType": "address",
          "name": "account",
          "type": "address"
        }
      ],
      "name": "revokeRole",
      "outputs": [],
      "stateMutability": "nonpayable",
      "type": "function"
    },
    {
      "inputs": [
        {
          "internalType": "address",
          "name": "o",
          "type": "address"
        }
      ],
      "name": "setOracle",
      "outputs": [],
      "stateMutability": "nonpayable",
      "type": "function"
    },
    {
      "inputs": [
        {
          "internalType": "bytes32",
          "name": "batchId",
          "type": "bytes32"
        },
        {
          "internalType": "uint256",
          "name": "total",
          "type": "uint256"
        },
        {
          "components": [
            {
              "internalType": "address",
              "name": "payee",
              "type": "address"
            },
            {
              "internalType": "uint256",
              "name": "amount",
              "type": "uint256"
            }
          ],
          "internalType": "struct ShopifyRoyaltyPayout.Item[]",
          "name": "items",
          "type": "tuple[]"
        },
        {
          "internalType": "bytes32",
          "name": "batchHash",
          "type": "bytes32"
        }
      ],
      "name": "submitBatch",
      "outputs": [],
      "stateMutability": "nonpayable",
      "type": "function"
    },
    {
      "inputs": [
        {
          "internalType": "bytes4",
          "name": "interfaceId",
          "type": "bytes4"
        }
      ],
      "name": "supportsInterface",
      "outputs": [
        {
          "internalType": "bool",
          "name": "",
          "type": "bool"
        }
      ],
      "stateMutability": "view",
      "type": "function"
    },
    {
      "inputs": [],
      "name": "token",
      "outputs": [
        {
          "internalType": "contract IERC20",
          "name": "",
          "type": "address"
        }
      ],
      "stateMutability": "view",
      "type": "function"
    },
    {
      "inputs": [
        {
          "internalType": "address",
          "name": "to",
          "type": "address"
        },
        {
          "internalType": "uint256",
          "name": "amt",
          "type": "uint256"
        }
      ],
      "name": "withdraw",
      "outputs": [],
      "stateMutability": "nonpayable",
      "type": "function"
    }
  ],
  "bytecode": "0x60a060405234801561001057600080fd5b5060405162000e3538038062000e358339810160408190526100319161018d565b600180556001600160a01b0383166100795760405162461bcd60e51b81526020600482015260076024820152660746f6b656e3d360cc1b604482015260640160405180910390fd5b6001600160a01b0383166080526100916000836100c5565b506100bc7f68e79a7bf1e0bc45d0a330c573bc367f9cf464fd326078812f301165fbda4ef1826100c5565b505050506101d0565b6000828152602081815260408083206001600160a01b038516845290915281205460ff16610167576000838152602081815260408083206001600160a01b03861684529091529020805460ff1916600117905561011f3390565b6001600160a01b0316826001600160a01b0316847f2f8788117e7eff1d82e926ec794901d17c78024a50270940304540a733656f0d60405160405180910390a450600161016b565b5060005b92915050565b80516001600160a01b038116811461018857600080fd5b919050565b6000806000606084860312156101a257600080fd5b6101ab84610171565b92506101b960208501610171565b91506101c760408501610171565b90509250925092565b608051610c3b620001fa600039600081816102460152818161046401526107a30152610c3b6000f3fe608060405234801561001057600080fd5b50600436106100ea5760003560e01c806391d148541161008c578063d547741f11610066578063d547741f14610208578063eceea1951461021b578063f3fef3a31461022e578063fc0c546a1461024157600080fd5b806391d14854146101ca578063a217fddf146101dd578063c1f0808a146101e557600080fd5b806327e235e3116100c857806327e235e31461016f5780632f2ff15d1461018f57806336568abe146101a45780637adbf973146101b757600080fd5b806301ffc9a7146100ef57806307e2cea514610117578063248a9ca31461014c575b600080fd5b6101026100fd366004610a53565b610280565b60405190151581526020015b60405180910390f35b61013e7f68e79a7bf1e0bc45d0a330c573bc367f9cf464fd326078812f301165fbda4ef181565b60405190815260200161010e565b61013e61015a366004610a84565b60009081526020819052604090206001015490565b61013e61017d366004610ab9565b60036020526000908152604090205481565b6101a261019d366004610ad4565b6102b7565b005b6101a26101b2366004610ad4565b6102e2565b6101a26101c5366004610ab9565b61031a565b6101026101d8366004610ad4565b61034f565b61013e600081565b6101026101f3366004610a84565b60026020526000908152604090205460ff1681565b6101a2610216366004610ad4565b610378565b6101a2610229366004610b00565b61039d565b6101a261023c366004610b8b565b6106e7565b6102687f000000000000000000000000000000000000000000000000000000000000000081565b6040516001600160a01b03909116815260200161010e565b60006001600160e01b03198216637965db0b60e01b14806102b157506301ffc9a760e01b6001600160e01b03198316145b92915050565b6000828152602081905260409020600101546102d281610823565b6102dc8383610830565b50505050565b6001600160a01b038116331461030b5760405163334bd91960e11b815260040160405180910390fd5b61031582826108c2565b505050565b600061032581610823565b6103157f68e79a7bf1e0bc45d0a330c573bc367f9cf464fd326078812f301165fbda4ef183610830565b6000918252602082815260408084206001600160a01b0393909316845291905290205460ff1690565b60008281526020819052604090206001015461039381610823565b6102dc83836108c2565b7f68e79a7bf1e0bc45d0a330c573bc367f9cf464fd326078812f301165fbda4ef16103c781610823565b60008681526002602052604090205460ff16156104185760405162461bcd60e51b815260206004820152600a60248201526918985d18da081d5cd95960b21b60448201526064015b60405180910390fd5b8261044d5760405162461bcd60e51b8152602060048201526005602482015264656d70747960d81b604482015260640161040f565b6040516370a0823160e01b815230600482015285907f00000000000000000000000000000000000000000000000000000000000000006001600160a01b0316906370a0823190602401602060405180830381865afa1580156104b3573d6000803e3d6000fd5b505050506040513d601f19601f820116820180604052508101906104d79190610bb5565b101561050e5760405162461bcd60e51b815260206004820152600660248201526566756e64733f60d01b604482015260640161040f565b6000805b848110156105b557600086868381811061052e5761052e610bce565b6105449260206040909202019081019150610ab9565b6001600160a01b0316036105845760405162461bcd60e51b8152602060048201526007602482015266070617965653d360cc1b604482015260640161040f565b85858281811061059657610596610bce565b90506040020160200135826105ab9190610be4565b9150600101610512565b508581146105f45760405162461bcd60e51b815260206004820152600c60248201526b1cdd5b48084f481d1bdd185b60a21b604482015260640161040f565b6000878152600260205260408120805460ff191660011790555b8481101561069a5785858281811061062857610628610bce565b905060400201602001356003600088888581811061064857610648610bce565b61065e9260206040909202019081019150610ab9565b6001600160a01b03166001600160a01b03168152602001908152602001600020600082825461068d9190610be4565b909155505060010161060e565b50604080518781526020810186905290810184905287907f6a98f133f58a9782659eaffff73aeaffd1a18e55fa0a83d1c9b70ff901d2fb999060600160405180910390a250505050505050565b6106ef61092d565b6001600160a01b038216158015906107075750600081115b61073b5760405162461bcd60e51b8152602060048201526005602482015264706172616d60d81b604482015260640161040f565b336000908152600360205260409020548181101561078a5760405162461bcd60e51b815260206004820152600c60248201526b1a5b9cdd59999a58da595b9d60a21b604482015260640161040f565b33600090815260036020526040902082820390556107d27f00000000000000000000000000000000000000000000000000000000000000006001600160a01b03168484610957565b604080518381526001600160a01b038516602082015233917f56c54ba9bd38d8fd62012e42c7ee564519b09763c426d331b3661b537ead19b2910160405180910390a25061081f60018055565b5050565b61082d81336109a9565b50565b600061083c838361034f565b6108ba576000838152602081815260408083206001600160a01b03861684529091529020805460ff191660011790556108723390565b6001600160a01b0316826001600160a01b0316847f2f8788117e7eff1d82e926ec794901d17c78024a50270940304540a733656f0d60405160405180910390a45060016102b1565b5060006102b1565b60006108ce838361034f565b156108ba576000838152602081815260408083206001600160a01b0386168085529252808320805460ff1916905551339286917ff6391f5c32d9c69d2a47ea670b442974b53935d1edc7fd64eb21e047a839171b9190a45060016102b1565b60026001540361095057604051633ee5aeb560e01b815260040160405180910390fd5b6002600155565b604080516001600160a01b038416602482015260448082018490528251808303909101815260649091019091526020810180516001600160e01b031663a9059cbb60e01b1790526103159084906109e2565b6109b3828261034f565b61081f5760405163e2517d3f60e01b81526001600160a01b03821660048201526024810183905260440161040f565b600080602060008451602086016000885af180610a05576040513d6000823e3d81fd5b50506000513d91508115610a1d578060011415610a2a565b6001600160a01b0384163b155b156102dc57604051635274afe760e01b81526001600160a01b038516600482015260240161040f565b600060208284031215610a6557600080fd5b81356001600160e01b031981168114610a7d57600080fd5b9392505050565b600060208284031215610a9657600080fd5b5035919050565b80356001600160a01b0381168114610ab457600080fd5b919050565b600060208284031215610acb57600080fd5b610a7d82610a9d565b60008060408385031215610ae757600080fd5b82359150610af760208401610a9d565b90509250929050565b600080600080600060808688031215610b1857600080fd5b8535945060208601359350604086013567ffffffffffffffff80821115610b3e57600080fd5b818801915088601f830112610b5257600080fd5b813581811115610b6157600080fd5b8960208260061b8501011115610b7657600080fd5b96999598505060200195606001359392505050565b60008060408385031215610b9e57600080fd5b610ba783610a9d565b946020939093013593505050565b600060208284031215610bc757600080fd5b5051919050565b634e487b7160e01b600052603260045260246000fd5b808201808211156102b157634e487b7160e01b600052601160045260246000fdfea264697066735822122072cfd816ddb900020b835e7336bcde4bc8a6d1f4d8f41ed3c56cf38939e2038064736f6c63430008180033",
  "linkReferences": {},
  "deployedLinkReferences": {}
}